{
  "_format": "hh-sol-artifact-1",
  "contractName": "wallet",
  "sourceName": "contracts/wallet.sol",
  "abi": [
    {
      "inputs": [
        {
          "internalType": "address",
          "name": "_address",
          "type": "address"
        }
      ],
      "name": "accountBalance",
      "outputs": [
        {
          "internalType": "uint256",
          "name": "",
          "type": "uint256"
        }
      ],
      "stateMutability": "view",
      "type": "function"
    },
    {
      "inputs": [],
      "name": "contractBalance",
      "outputs": [
        {
          "internalType": "uint256",
          "name": "",
          "type": "uint256"
        }
      ],
      "stateMutability": "view",
      "type": "function"
    },
    {
      "inputs": [],
      "name": "getValue",
      "outputs": [
        {
          "internalType": "uint256",
          "name": "",
          "type": "uint256"
        }
      ],
      "stateMutability": "view",
      "type": "function"
    },
    {
      "inputs": [],
      "name": "name",
      "outputs": [
        {
          "internalType": "string",
          "name": "",
          "type": "string"
        }
      ],
      "stateMutability": "view",
      "type": "function"
    },
    {
      "inputs": [],
      "name": "sendEthContract",
      "outputs": [],
      "stateMutability": "payable",
      "type": "function"
    },
    {
      "inputs": [
        {
          "internalType": "address",
          "name": "_user",
          "type": "address"
        }
      ],
      "name": "sendEthUser",
      "outputs": [],
      "stateMutability": "payable",
      "type": "function"
    },
    {
      "inputs": [
        {
          "internalType": "uint256",
          "name": "_num",
          "type": "uint256"
        }
      ],
      "name": "setValue",
      "outputs": [],
      "stateMutability": "nonpayable",
      "type": "function"
    }
  ],
  "bytecode": "0x60806040526040518060400160405280600681526020017f77616c6c65740000000000000000000000000000000000000000000000000000815250600090816200004a9190620002d9565b503480156200005857600080fd5b50620003c0565b600081519050919050565b7f4e487b7100000000000000000000000000000000000000000000000000000000600052604160045260246000fd5b7f4e487b7100000000000000000000000000000000000000000000000000000000600052602260045260246000fd5b60006002820490506001821680620000e157607f821691505b602082108103620000f757620000f662000099565b5b50919050565b60008190508160005260206000209050919050565b60006020601f8301049050919050565b600082821b905092915050565b600060088302620001617fffffffffffffffffffffffffffffffffffffffffffffffffffffffffffffffff8262000122565b6200016d868362000122565b95508019841693508086168417925050509392505050565b6000819050919050565b6000819050919050565b6000620001ba620001b4620001ae8462000185565b6200018f565b62000185565b9050919050565b6000819050919050565b620001d68362000199565b620001ee620001e582620001c1565b8484546200012f565b825550505050565b600090565b62000205620001f6565b62000212818484620001cb565b505050565b5b818110156200023a576200022e600082620001fb565b60018101905062000218565b5050565b601f82111562000289576200025381620000fd565b6200025e8462000112565b810160208510156200026e578190505b620002866200027d8562000112565b83018262000217565b50505b505050565b600082821c905092915050565b6000620002ae600019846008026200028e565b1980831691505092915050565b6000620002c983836200029b565b9150826002028217905092915050565b620002e4826200005f565b67ffffffffffffffff8111156200030057620002ff6200006a565b5b6200030c8254620000c8565b620003198282856200023e565b600060209050601f8311600181146200035157600084156200033c578287015190505b620003488582620002bb565b865550620003b8565b601f1984166200036186620000fd565b60005b828110156200038b5784890151825560018201915060208501945060208101905062000364565b86831015620003ab5784890151620003a7601f8916826200029b565b8355505b6001600288020188555050505b505050505050565b6104fe80620003d06000396000f3fe6080604052600436106100705760003560e01c806331b75c0e1161004e57806331b75c0e146100e757806355241077146100f15780638b7afe2e1461011a578063d294cb0f1461014557610070565b806306fdde03146100755780631bc5e545146100a057806320965255146100bc575b600080fd5b34801561008157600080fd5b5061008a610182565b6040516100979190610329565b60405180910390f35b6100ba60048036038101906100b591906103ae565b610210565b005b3480156100c857600080fd5b506100d161025a565b6040516100de91906103f4565b60405180910390f35b6100ef610264565b005b3480156100fd57600080fd5b506101186004803603810190610113919061043b565b610266565b005b34801561012657600080fd5b5061012f610270565b60405161013c91906103f4565b60405180910390f35b34801561015157600080fd5b5061016c600480360381019061016791906103ae565b610278565b60405161017991906103f4565b60405180910390f35b6000805461018f90610497565b80601f01602080910402602001604051908101604052809291908181526020018280546101bb90610497565b80156102085780601f106101dd57610100808354040283529160200191610208565b820191906000526020600020905b8154815290600101906020018083116101eb57829003601f168201915b505050505081565b8073ffffffffffffffffffffffffffffffffffffffff166108fc349081150290604051600060405180830381858888f19350505050158015610256573d6000803e3d6000fd5b5050565b6000600154905090565b565b8060018190555050565b600047905090565b60008173ffffffffffffffffffffffffffffffffffffffff16319050919050565b600081519050919050565b600082825260208201905092915050565b60005b838110156102d35780820151818401526020810190506102b8565b60008484015250505050565b6000601f19601f8301169050919050565b60006102fb82610299565b61030581856102a4565b93506103158185602086016102b5565b61031e816102df565b840191505092915050565b6000602082019050818103600083015261034381846102f0565b905092915050565b600080fd5b600073ffffffffffffffffffffffffffffffffffffffff82169050919050565b600061037b82610350565b9050919050565b61038b81610370565b811461039657600080fd5b50565b6000813590506103a881610382565b92915050565b6000602082840312156103c4576103c361034b565b5b60006103d284828501610399565b91505092915050565b6000819050919050565b6103ee816103db565b82525050565b600060208201905061040960008301846103e5565b92915050565b610418816103db565b811461042357600080fd5b50565b6000813590506104358161040f565b92915050565b6000602082840312156104515761045061034b565b5b600061045f84828501610426565b91505092915050565b7f4e487b7100000000000000000000000000000000000000000000000000000000600052602260045260246000fd5b600060028204905060018216806104af57607f821691505b6020821081036104c2576104c1610468565b5b5091905056fea2646970667358221220732c06ff6abdeaf53e825eb5f8728dfd58aa0d9f0c7c3390589783900a3bca6e64736f6c63430008110033",
  "linkReferences": {},
  "deployedLinkReferences": {}
}